:100000000C945C000C9479000C9479000C940D0114
:100010000C9479000C9479000C9479000C9479007C
:100020000C9479000C9479000C9479000C9479006C
:100030000C9479000C9479000C9479000C9479005C
:100040000C94C3000C9479000C9479000C94790002
:100050000C9479000C9479000C9479000C9479003C
:100060000C9479000C947900000000002400270013
:100070002A0000000000250028002B0004040404CE
:100080000404040402020202020203030303030342
:10009000010204081020408001020408102001021F
:1000A00004081020000000080002010000030407FB
:1000B000000000000000000011241FBECFEFD8E0B8
:1000C000DEBFCDBF11E0A0E0B1E0E6E9F4E002C0A0
:1000D00005900D92A030B107D9F721E0A0E0B1E082
:1000E00001C01D92AD30B207E1F70E9435010C94BA
:1000F00049020C940000E7EAF0E02491E3E9F0E023
:100100009491EFE7F0E0E491EE23C9F0222339F077
:10011000233001F1A8F4213019F1223029F1F0E067
:10012000EE0FFF1FEE58FF4FA591B4912FB7F89433
:10013000EC91811126C090959E239C932FBF08952A
:100140002730A9F02830C9F0243049F720918000E9
:100150002F7D03C0209180002F7720938000DFCF78
:1001600024B52F7724BDDBCF24B52F7DFBCF209185
:10017000B0002F772093B000D2CF2091B0002F7D18
:10018000F9CF9E2BDACF1F920F920FB60F92112448
:100190002F933F938F939F93AF93BF9380910701CA
:1001A00090910801A0910901B0910A0130910601D6
:1001B00023E0230F2D3758F50196A11DB11D209383
:1001C00006018093070190930801A0930901B09361
:1001D0000A018091020190910301A0910401B09164
:1001E00005010196A11DB11D8093020190930301A9
:1001F000A0930401B0930501BF91AF919F918F919E
:100200003F912F910F900FBE0F901F90189526E8E9
:10021000230F0296A11DB11DD2CF1F920F920FB6D0
:100220000F9211248F939F9380910001909101016F
:10023000189B0FC0892B31F481E090E090930C0162
:1002400080930B019F918F910F900FBE0F901F9085
:10025000189581309105B1F790930C0180930B01B3
:100260001092010110920001EDCF789484B5826064
:1002700084BD84B5816084BD85B5826085BD85B54A
:10028000816085BD80916E00816080936E001092C8
:100290008100809181008260809381008091810043
:1002A00081608093810080918000816080938000D4
:1002B0008091B10084608093B1008091B000816032
:1002C0008093B00080917A00846080937A0080915E
:1002D0007A00826080937A0080917A0081608093B6
:1002E0007A0080917A00806880937A001092C10031
:1002F0008091680081608093680080916B008160CC
:1003000080936B00E3E9F0E02491EFE7F0E0849163
:10031000882399F090E0880F991FFC01E859FF4F5E
:10032000A591B491FC01EE58FF4F859194918FB740
:10033000F894EC91E22BEC938FBF90E4B92EC12C92
:1003400024E0D22EE12CF12C0BE811E0C0E0D0E04B
:10035000B0927C0080917A00806480937A008091D2
:100360007A0086FDFCCF8091780020917900409141
:100370000B0150910C01452B39F1322F282FAAEF98
:10038000B8ED0E943A02A70196010E94EA01205F9F
:10039000384D4F4F5F4F2230310548F0220F331F49
:1003A000220F331F25503109C9010197F1F781E070
:1003B0000E947B00C8010197F1F780E00E947B005A
:1003C00010920C0110920B01209709F4C1CF0E94EA
:1003D0000000BECF052E97FB1EF400940E94010280
:1003E00057FD07D00E94090207FC03D04EF40C947D
:1003F000010250954095309521953F4F4F4F5F4FEB
:10040000089590958095709561957F4F8F4F9F4F80
:100410000895A1E21A2EAA1BBB1BFD010DC0AA1F45
:10042000BB1FEE1FFF1FA217B307E407F50720F05D
:10043000A21BB30BE40BF50B661F771F881F991FD8
:100440001A9469F760957095809590959B01AC0121
:10045000BD01CF010895A29FB001B39FC001A39F2A
:10046000700D811D1124911DB29F700D811D1124ED
:10047000911D08950E942B02332312F48A1B9B0BBB
:100480000C9444020E942B02B7FF0895821B930B29
:060490000895F894FFCF6F
:00000001FF
