:100000000C945C000C94FF010C94D8010C947900C2
:100010000C9479000C9479000C9479000C9479007C
:100020000C9479000C9479000C9479000C9479006C
:100030000C9479000C9479000C9479000C9479005C
:100040000C948E010C9479000C9479000C94790036
:100050000C9479000C9479000C9479000C9479003C
:100060000C9479000C947900000000002400270013
:100070002A0000000000250028002B0004040404CE
:100080000404040402020202020203030303030342
:10009000010204081020408001020408102001021F
:1000A00004081020000000080002010000030407FB
:1000B000000000000000000011241FBECFEFD8E0B8
:1000C000DEBFCDBF11E0A0E0B1E0ECE5F5E002C09D
:1000D00005900D92A430B107D9F721E0A4E0B1E07A
:1000E00001C01D92AD30B207E1F70E9426020C94C8
:1000F000AC020C94000090E0FC01EC55FF4F249101
:10010000FC01E057FF4F3491FC01E458FF4FE491AC
:10011000EE23C9F0222339F0233001F1A8F4213075
:1001200019F1223029F1F0E0EE0FFF1FEE58FF4FDA
:10013000A591B4918FB7F894EC91611126C03095D8
:100140003E233C938FBF08952730A9F02830C9F093
:10015000243049F7809180008F7D03C0809180001A
:100160008F7780938000DFCF84B58F7784BDDBCF1E
:1001700084B58F7DFBCF8091B0008F778093B000E6
:10018000D2CF8091B0008F7DF9CF3E2BDACFCF93C5
:10019000DF9390E0FC01E057FF4F249184589F4F7C
:1001A000FC0184918823D1F090E0880F991FFC0115
:1001B000E859FF4FA591B491FC01EE58FF4FC5914E
:1001C000D49161110EC09FB7F8948C91E22FE09505
:1001D0008E238C932881E223E8839FBFDF91CF9108
:1001E00008958FB7F894EC91E22BEC938FBFF6CF84
:1001F0003FB7F8948091090190910A01A0910B01F9
:10020000B0910C0126B5A89B05C02F3F19F00196AF
:10021000A11DB11D3FBFBA2FA92F982F8827BC0160
:10022000CD01620F711D811D911D42E0660F771F88
:10023000881F991F4A95D1F708958F929F92AF9288
:10024000BF92CF92DF92EF92FF920E94F8004B0193
:100250005C0184EFC82EDD24D394E12CF12C0E94A4
:10026000F800681979098A099B09683E734081057D
:100270009105A8F321E0C21AD108E108F10888EE3F
:10028000880E83E0981EA11CB11CC114D104E104A6
:10029000F10429F7FF90EF90DF90CF90BF90AF90DF
:1002A0009F908F90089508950F931F93CF93DF939E
:1002B000C2E3D0E00BEF19EF61E086E00E947B0023
:1002C000C8010197F1F760E086E00E947B00C80159
:1002D0000197F1F7219781F7DF91CF911F910F914E
:1002E00008950F931F93CF93DF93C2E3D0E00BEFFA
:1002F00019EF61E089E00E947B00C8010197F1F7E6
:1003000060E089E00E947B00C8010197F1F7219726
:1003100081F7DF91CF911F910F9108951F920F9256
:100320000FB60F9211242F933F938F939F93AF9308
:10033000BF938091050190910601A0910701B091B2
:1003400008013091040123E0230F2D3758F5019661
:10035000A11DB11D20930401809305019093060116
:10036000A0930701B09308018091090190910A01BF
:10037000A0910B01B0910C010196A11DB11D8093BC
:10038000090190930A01A0930B01B0930C01BF9156
:10039000AF919F918F913F912F910F900FBE0F9032
:1003A0001F90189526E8230F0296A11DB11DD2CFEC
:1003B0001F920F920FB60F9211242F933F934F93DA
:1003C0005F936F937F938F939F93AF93BF93EF93BD
:1003D000FF93E0910201F09103010995FF91EF91E4
:1003E000BF91AF919F918F917F916F915F914F914D
:1003F0003F912F910F900FBE0F901F9018951F9255
:100400000F920FB60F9211242F933F934F935F9348
:100410006F937F938F939F93AF93BF93EF93FF93CC
:10042000E0910001F09101010995FF91EF91BF91D9
:10043000AF919F918F917F916F915F914F913F917C
:100440002F910F900FBE0F901F901895789484B540
:10045000826084BD84B5816084BD85B5826085BDC0
:1004600085B5816085BD80916E00816080936E004E
:100470001092810080918100826080938100809140
:1004800081008160809381008091800081608093F1
:1004900080008091B10084608093B1008091B000B1
:1004A00081608093B00080917A00846080937A00AC
:1004B00080917A00826080937A0080917A008160D6
:1004C00080937A0080917A00806880937A001092FD
:1004D000C10060E083E00E94C70061E08CE00E9400
:1004E000C70061E089E00E94C70061E086E00E94E9
:1004F000C70081E791E09093010180930001809112
:100500006900836080936900E89A84E591E09093A4
:10051000030180930201809169008C6080936900DF
:10052000E99AC0E0D0E060E089E00E947B0060E0F2
:1005300086E00E947B0061E08CE00E947B000E94CC
:100540001D0160E08CE00E947B000E941D0120974D
:0C05500051F30E940000E7CFF894FFCFA9
:04055C0053015301F3
:00000001FF
