:100000000C9462000C948A000C948A000C948A0070
:100010000C948A000C948A000C948A000C948A0038
:100020000C948A000C948A000C948A000C948A0028
:100030000C948A000C948A000C948A000C948A0018
:100040000C9464020C948A000C9432020C940C02FE
:100050000C948A000C948A000C948A000C948A00F8
:100060000C948A000C948A0005A84CCDB2D44EB9E9
:100070003836A9020C50B9918688083CA6AAAA2A4B
:10008000BE000000803F00000000250028002B007B
:1000900000000000240027002A00040404040404D3
:1000A0000404020202020202030303030303010227
:1000B00004081020408001020408102001020408F6
:1000C0001020290411241FBECFEFD8E0DEBFCDBF22
:1000D00011E0A0E0B1E0E4E3FDE002C005900D9284
:1000E000A631B107D9F721E0A6E1B1E001C01D9228
:1000F000A03CB207E1F710E0C2E6D0E004C02197CF
:10010000FE010E949206C136D107C9F70E94AE02D5
:100110000C9498060C940000AF92BF92CF92DF929D
:10012000EF92FF920F931F93CF93DF936C017B01AC
:100130008B01040F151FEB015E01AE18BF08C0173D
:10014000D10759F06991D601ED91FC910190F081B0
:10015000E02DC6010995892B79F7C501DF91CF9173
:100160001F910F91FF90EF90DF90CF90BF90AF90D5
:100170000895FC01538D448D252F30E0842F90E0AD
:10018000821B930B541710F0CF9608950197089592
:10019000FC01918D828D981761F0A28DAE0FBF2F5B
:1001A000B11D5D968C91928D9F5F9F73928F90E0B1
:1001B00008958FEF9FEF0895FC01918D828D981720
:1001C00031F0828DE80FF11D858D90E008958FEF5D
:1001D0009FEF0895FC01918D228D892F90E0805C26
:1001E0009F4F821B91098F739927089583E291E0B5
:1001F0000E94EA0021E0892B09F420E0822F089573
:1002000080E090E0892B29F00E94F60081110C9487
:1002100000000895FC01A48DA80FB92FB11DA35AA9
:10022000BF4F2C91848D90E001968F739927848F16
:10023000A689B7892C93A089B1898C918370806439
:100240008C93938D848D981306C00288F389E02DDA
:1002500080818F7D80830895EF92FF920F931F938B
:10026000CF93DF93EC0181E0888F9B8D8C8D981369
:100270001AC0E889F989808185FF15C09FB7F89475
:10028000EE89FF896083E889F989808183708064C1
:1002900080839FBF81E090E0DF91CF911F910F910C
:1002A000FF90EF900895F62E0B8D10E00F5F1F4F1B
:1002B0000F731127E02E8C8D8E110CC00FB607FC2A
:1002C000FACFE889F989808185FFF5CFCE010E94B8
:1002D0000A01F1CFEB8DEC0FFD2FF11DE35AFF4F1B
:1002E000F0829FB7F8940B8FEA89FB898081806246
:1002F000CFCFCF93DF93EC01888D8823B9F0AA8903
:10030000BB89E889F9898C9185FD03C0808186FDD0
:100310000DC00FB607FCF7CF8C9185FFF2CF80811F
:1003200085FFEDCFCE010E940A01E9CFDF91CF9189
:1003300008953FB7F89480911B0190911C01A09102
:100340001D01B0911E0126B5A89B05C02F3F19F0D5
:100350000196A11DB11D3FBFBA2FA92F982F882745
:10036000BC01CD01620F711D811D911D42E0660F20
:10037000771F881F991F4A95D1F708958F929F92F2
:10038000AF92BF920F931F93CF93DF93CDB7DEB79A
:10039000A1970FB6F894DEBF0FBECDBF19A24230B1
:1003A00008F44AE08E010F5D1F4F842E912CB12C72
:1003B000A12CA50194010E947006E62FB901CA0183
:1003C000EA3044F5E05DD801EE938D01232B242B18
:1003D000252B79F790E080E0109769F0FD010190FE
:1003E0000020E9F73197AF014A1B5B0BBD0183E2A7
:1003F00091E00E948C00A1960FB6F894DEBF0FBE6C
:10040000CDBFDF91CF911F910F91BF90AF909F9083
:100410008F900895E95CD7CF1F920F920FB60F927D
:1004200011242F933F934F935F936F937F938F93F9
:100430009F93AF93BF93EF93FF9383E291E00E946A
:100440000A01FF91EF91BF91AF919F918F917F91A1
:100450006F915F914F913F912F910F900FBE0F9031
:100460001F9018951F920F920FB60F9211242F9381
:100470008F939F93EF93FF93E0913301F0913401B9
:100480008081E0913901F0913A0182FD1BC0908199
:1004900080913C018F5F8F7320913D01821741F065
:1004A000E0913C01F0E0ED5DFE4F958F80933C01C3
:1004B000FF91EF919F918F912F910F900FBE0F9011
:1004C0001F9018958081F4CF1F920F920FB60F9254
:1004D00011242F933F938F939F93AF93BF9380915A
:1004E000170190911801A0911901B0911A01309152
:1004F000160123E0230F2D3758F50196A11DB11DDC
:10050000209316018093170190931801A09319016D
:10051000B0931A0180911B0190911C01A0911D01C3
:10052000B0911E010196A11DB11D80931B019093F6
:100530001C01A0931D01B0931E01BF91AF919F912B
:100540008F913F912F910F900FBE0F901F90189594
:1005500026E8230F0296A11DB11DD2CF789484B551
:10056000826084BD84B5816084BD85B5826085BDAF
:1005700085B5816085BD80916E00816080936E003D
:10058000109281008091810082608093810080912F
:1005900081008160809381008091800081608093E0
:1005A00080008091B10084608093B1008091B000A0
:1005B00081608093B00080917A00846080937A009B
:1005C00080917A00826080937A0080917A008160C5
:1005D00080937A0080917A00806880937A001092EC
:1005E000C100E9EBF0E02491E5EAF0E08491882392
:1005F00099F090E0880F991FFC01E057FF4FA591FB
:10060000B491FC01EA57FF4F859194918FB7F8940C
:10061000EC91E22BEC938FBF8091B00080688093C7
:10062000B0008091B0008F7B8093B0008091B000CB
:10063000877F8093B0008091B00082608093B0008B
:100640008091B00081608093B00081E08093B3001E
:100650008091B1008B7F8093B1008091B1008D7F3C
:100660008093B1008091B10081608093B100E091EE
:100670003301F091340182E08083E0912F01F09109
:1006800030011082E0913101F09132018FEC8083D2
:1006900010923B01E0913701F091380186E08083B0
:1006A000E0913501F0913601808180618083E09195
:1006B0003501F0913601808188608083E0913501B9
:1006C000F0913601808180688083E0913501F0915E
:1006D000360180818F7D8083C0E0D0E027E137EB59
:1006E00041E559E360911F01709120018091210142
:1006F000909122010E94570460931F017093200182
:1007000080932101909322012BE734E14DE953E4DA
:100710000E944F050E94BC0520E030E04FE753E403
:100720000E944F050E94C3046B01770FEE08FF087B
:100730004AE0C701B601F7FE0DC06DE283E291E029
:100740000E942C0166277727CB016C197D098E0941
:100750009F094AE00E94BE0142E050E062E171E080
:1007600083E291E00E948C002BE734E14DE953E4F1
:1007700060911F01709120018091210190912201CF
:100780000E944F050E94BC056B017C0120E030E017
:10079000A9010E944A0518160CF053C020E030E071
:1007A0004FE753E4C701B6010E944F050E94CA04F7
:1007B0006093B3000E9499014B015C0184E6C82E4E
:1007C000D12CE12CF12C0E949901681979098A0930
:1007D0009B09683E734081059105A8F321E0C21A88
:1007E000D108E108F10888EE880E83E0981EA11C6C
:1007F000B11CC114D104E104F10429F72AE037ED5A
:1008000043EA5CE360911F01709120018091210116
:10081000909122010E944A0587FD08C010921F0195
:10082000109220011092210110922201209709F4C8
:1008300055CF0E94F600882309F450CF0E94000093
:100840004DCFC701B601905820E030E04FE753E4A8
:10085000ABCFE3E2F1E01382128288EE93E0A0E0F6
:10086000B0E084839583A683B78384E091E091838D
:10087000808385EC90E09587848784EC90E097876F
:10088000868780EC90E0918B808B81EC90E0938B5D
:10089000828B82EC90E0958B848B86EC90E0978B3A
:1008A000868B118E128E138E148E08955058BB278E
:1008B000AA270E946E040C9410050E94020538F0CD
:1008C0000E94090520F039F49F3F19F426F40C9496
:1008D000FF040EF4E095E7FB0C94F904E92F0E9465
:1008E000210558F3BA17620773078407950720F0AC
:1008F00079F4A6F50C9443050EF4E0950B2EBA2F6F
:10090000A02D0B01B90190010C01CA01A001112415
:10091000FF27591B99F0593F50F4503E68F11A16C1
:10092000F040A22F232F342F4427585FF3CF469552
:1009300037952795A795F0405395C9F77EF41F1674
:10094000BA0B620B730B840BBAF09150A1F0FF0F3E
:10095000BB1F661F771F881FC2F70EC0BA0F621F2A
:10096000731F841F48F4879577956795B795F7951A
:100970009E3F08F0B0CF9395880F08F09927EE0FAF
:100980009795879508950E94CA046894B1110C94B4
:10099000440508950E94290588F09F5798F0B92FC3
:1009A0009927B751B0F0E1F0660F771F881F991FA4
:1009B0001AF0BA95C9F714C0B13091F00E944305FE
:1009C000B1E008950C944305672F782F8827B85F0E
:1009D00039F0B93FCCF3869577956795B395D9F7FC
:1009E0003EF490958095709561957F4F8F4F9F4F06
:1009F000089597F99F6780E870E060E008959FEFA1
:100A000080EC089500240A941616170618060906A5
:100A1000089500240A941216130614060506089574
:100A2000092E0394000C11F4882352F0BB0F40F4FC
:100A3000BF2B11F460FF04C06F5F7F4F8F4F9F4F3C
:100A4000089557FD9058440F551F59F05F3F71F0BE
:100A50004795880F97FB991F61F09F3F79F0879525
:100A60000895121613061406551FF2CF4695F1DFAE
:100A700008C0161617061806991FF1CF869571053E
:100A8000610508940895E894BB2766277727CB0172
:100A900097F908950E94C40508F48FEF08950E9405
:100AA00062050C9410050E94020538F00E940905A9
:100AB00020F0952311F00C94F9040C94FF041124F8
:100AC0000C9444050E94210570F3959FC1F3950F86
:100AD00050E0551F629FF001729FBB27F00DB11DC2
:100AE000639FAA27F00DB11DAA1F649F6627B00D52
:100AF000A11D661F829F2227B00DA11D621F739F3B
:100B0000B00DA11D621F839FA00D611D221F749F48
:100B10003327A00D611D231F849F600D211D822F8F
:100B2000762F6A2F11249F5750409AF0F1F08823B6
:100B30004AF0EE0FFF1FBB1F661F771F881F9150E3
:100B40005040A9F79E3F510580F00C94F9040C9495
:100B500044055F3FE4F3983ED4F386957795679517
:100B6000B795F795E7959F5FC1F7FE2B880F911D0D
:100B70009695879597F908959F930E94EA050F909F
:100B800007FCEE5F0C941306990F0008550FAA0B93
:100B9000E0E8FEEF16161706E807F907C0F0121690
:100BA0001306E407F50798F0621B730B840B950B93
:100BB00039F40A2661F0232B242B252B21F40895E8
:100BC0000A2609F4A140A6958FEF811D811D089585
:100BD0000C94FF040E942905D8F3E894E0E0BB27B9
:100BE0009F57F0F02AED3FE049EC06C0EE0FBB0F37
:100BF000661F771F881F28F0B23A620773078407C1
:100C000028F0B25A620B730B840BE3959A9572F736
:100C1000803830F49A95BB0F661F771F881FD2F774
:100C200090480C942906EF93E0FF07C0A2EA2AED52
:100C30003FE049EC5FEB0E946E040E9410050F90AC
:100C4000039401FC9058E8E6F0E00C9435069F3FD1
:100C500031F0915020F4879577956795B795880F77
:100C6000911D9695879597F908959F938F937F93FC
:100C70006F93FF93EF939B01AC010E944F05EF919F
:100C8000FF910E9449062F913F914F915F910C94E3
:100C90004F05DF93CF931F930F93FF92EF92DF9255
:100CA0007B018C01689406C0DA2EEF010E94620578
:100CB000FE01E894A5912591359145915591A6F3B2
:100CC000EF010E946E04FE019701A801DA9469F712
:100CD000DF90EF90FF900F911F91CF91DF910895DA
:100CE000A1E21A2EAA1BBB1BFD010DC0AA1FBB1F30
:100CF000EE1FFF1FA217B307E407F50720F0A21BA2
:100D0000B30BE40BF50B661F771F881F991F1A940E
:100D100069F760957095809590959B01AC01BD0138
:100D2000CF010895EE0FFF1F0590F491E02D099477
:040D3000F894FFCF65
:100D3400000000002C018C00B9007901EA00C80011
:060D4400DC000D0A0000B6
:00000001FF
